:100000006F00301600000000200600002E060000E1
:1000100000000000000000000000000000000000E0
:1000200000000000000000000000000000000000D0
:100030002E060000000000002E0600000000000058
:100040002E0600002E0600002E0600002E060000E0
:10005000DC0900002E0600002E0600002E0600001F
:100060002E0600002E0600002E0600002E060000C0
:100070002E0600002E0600002E0600002E060000B0
:100080002E0600002E0600002E0600002E060000A0
:100090002E0600002E0600002E06000000000000C4
:1000A000634E050263C305042E86AA857D5515C2DD
:1000B00085466378B6006356C00006068606E36C84
:1000C000B6FE014563E4C500918D558D858205829C
:1000D000F5FA82808682C93F2E8582823305A04050
:1000E0006347B000B305B040C1B7B305B0408682E6
:1000F000653F3305A0408282868263C7050063495D
:1001000005005D372E858282B305B040E35B05FEB6
:100110003305A040513F3305B04082820000B7074D
:1001200000E083A7470F8280370700E08327470F4F
:10013000211106CA22C826C693F7070C9306000CA5
:10014000638AD70A02C42E84F1E18327470F89C747
:1001500093F7070891E3E137D24022854244B24445
:1001600061018280B30794401D476353F7009D47A8
:10017000370708000507370600E08326460F93057A
:10018000460F13F306086311030691C62AC23EC048
:1001900079371245824734000D47B685634EF70420
:1001A000A246370700E00D46232CD70EB306950074
:1001B000014783C2060005073383E500230053008F
:1001C0006385E7008506E316C7FE138747001367BC
:1001D00007F82304E100A246370700E0BE94232A73
:1001E000D70EE3C184F88DBF7D1741FB9C4193E797
:1001F000070C9CC101448DB73386E4002A96034660
:10020000060005078506A38FC6FE49BF8144D1BFFE
:1002100037170140B707002085461307074093872B
:100220000700631BD5009306000414CB03D7070017
:10023000799B2390E70082809306000414CB2390DF
:1002400007008280011106CE22CC26CA02C02A8372
:100250006357050089E685473303A0403EC0130479
:10026000100619C213041004BA8459141A853AC826
:100270001AC22EC61AC4B93DA5472243B245424709
:100280009376F50F63E1A7069386060393F6F60FC0
:10029000938714002380D4001A853AC83EC62EC422
:1002A00021359246A245B24742472A8363FBB602F4
:1002B000824699C69306D0022380D70093872400F4
:1002C0003385E7409356F501AA962380070085867B
:1002D0000146FD17634BD600F2406244D2440561EB
:1002E0008280BE8461B7A29655B7B305C70083C2AA
:1002F000070003C30500050623805500238067001F
:10030000C9BF0143ADC263D4B600B68505438D8E27
:10031000BA87B303D700B382F3406348500463D372
:1003200006008146BA9681473386F5406343C00490
:1003300063D305008145B6953385E5406304030228
:100340006372B7029307A002A38FF5FE9386F5FFB1
:10035000637AD700238FF5FE9386E5FF6374D70099
:10036000A38EF5FE8280AE865DB78507A38FC7FE9C
:100370005DB73306F500834206003386F600850735
:100380002300560055B7511122C206C42E84693B82
:10039000A240228512443101828037170140B707FD
:1003A000002085461307074093870700631CD5008C
:1003B000B706400014CB03D707001367170023903C
:1003C000E7008280B706400014CB7D57CDBF0323E2
:1003D000070093175300BA97C8536312C506133525
:1003E0001500C8D3631803001C47ADE3F5168D470D
:1003F00063F7D7045C4795CB631703029441B717A3
:1004000034AA9387D72F6390F602DC41B7D6DD007C
:100410009386B6CBA207A1836397D7009D475CCF95
:1004200089475CC729A8232607009841238A0180B1
:10043000B70700209387470098C3D841D8C39306D5
:10044000200D0946814501456F00B00583D6450062
:1004500083D7250003D56500C206DD8E83D705004E
:10046000232E0700232C070223240702232607023A
:10047000232407008583130600496398C700930768
:10048000D03FE39EF6FA854769BF1306000D6398D7
:10049000C702B707002083D607009387C18013D611
:1004A0008600A383D7002383C7001CDFA146AA8749
:1004B00063F3A600A147C207C1835CD749B71306FF
:1004C0000034639DC70285679387C7E79385070656
:1004D0002A8390436310D602D04310DF03C68700FF
:1004E0009312060193D20201637355001A864206E5
:1004F000418250D7B107E39EB7FC91B7130600289D
:10050000E39FC7F254C325BF311122C626C406C8D3
:10051000931756003A8410C33E971853B28493063B
:10052000300C19C39306B00450440947631FE60218
:1005300036853EC236C0B92F370667453727024099
:100540001306361210D73796EFCD1306B69A10D78A
:10055000116650C7924713060008824610CB37F742
:1005600000E0370600802328C7D0A2979057D18C8F
:1005700085C8B707002083D707001386C18013976B
:100580008700C207C183A183D98F2313F600A14539
:1005900001461385C1803244C240A244510111A7D3
:1005A000484C1C5C4C540E05898D3E95A14763CA8E
:1005B000B7006349B0003244C240A24436855101BD
:1005C000D1ADA1450146C1BFB7270240054798C339
:1005D000B71702403707080123A2070013071708BF
:1005E00098C337079F0098C7371702401C4393965C
:1005F0006700E3DD06FE5C43B7160240F19B93E71C
:1006000027005CC32147DC42B18BE39EE7FEB707BE
:1006100000E023AC070E1307000823AAE70E828030
:10062000371702401C47B7068000D58F1CC7370715
:1006300000E08327470F93F70708E5FFF325003015
:1006400073263034F32620347327103405651305E0
:1006500045E2ED2401A0411106C622C426C2AD37F1
:10066000B7F700E09847B167938707B83E97B7F6AA
:1006700000E09C46998FE3CE07FEB707002023A831
:100680000702B71602409C4E37F6F0FF1306F60F2E
:1006900093E717019CCEB717014098433704002019
:1006A00013044400718F3716080013060680518F1B
:1006B00098C3130600203707014010C74146232086
:1006C000C7402326C7403706100037E700E0232045
:1006D000C710984E138607401367570398CE03A799
:1006E0000740B70600F1FD16758FB7060001558F5C
:1006F00023A0E740930700041CCA37474141938772
:10070000C1801307171498C3130710042392E7003E
:1007100003C74181938741813EC001E3024785477A
:100720008D442300F700834704001307F00F639AFA
:10073000E700034514009531FD1493F4F40FE5F43C
:10074000C1BF1307D00F6396E70003451400C934F7
:10075000E5B71307E00F6394E7000945E9BF130706
:10076000C00F6394E7000945DDB71307A00FE395B9
:10077000E7FC024785472300F7007DBFAA8703C730
:10078000070001E73385A74082808507CDBF1301AD
:1007900041FAA6C886CCA2CA2AC02EC2B284B687A5
:1007A00002C803C7040013841400A30FE10001EB87
:1007B000E64056444245C6441301C1058280930673
:1007C0005002630FD7003EC4124682478545130589
:1007D000F1018297A284C247AA973EC8A247D1B727
:1007E00083C614001306000313872400A30FD1004F
:1007F000130400036390C608BA84014601472545E7
:1008000011A8931627008504369783C6F4FF0607C0
:100810002E970546938506FD13F3F50FE37365FEEA
:1008200019C2A30FD1003AC661466353E60032C62F
:100830009305C00601466398B60083C604000546CA
:100840008504A30FD1008346F1019305400663831D
:10085000B60663E4D502130780056380E60A130732
:100860003006638DE60AA9D612463EC485451305B7
:10087000F101BDA01304000241B793055007638B3B
:10088000B60213068007638AC60613063007E39D87
:10089000C6FC3ACC138747009C433AC43E853ECA07
:1008A000F13D6247D247AA8559C7B2463818228619
:1008B0003E851DA0138747003AC415C69386B6F837
:1008C000181093B6160088430146A945A53AB246CA
:1008D00038182286AA8508102D341246AA852818B1
:1008E00082478297CDBD130750076395E600181025
:1008F0008546D1BF18108146F9B788431387470052
:10090000138686FA3AC48546181013361600C14578
:10091000153AB246AA853818228675BF1387470054
:100920009C433AC4B246A30FF1003818228685458D
:100930001305F10155B712463E855DB71301C1FDA0
:1009400032CA2A862EC836CC814514081305603871
:1009500006C63ACE3ED036C01D3DB240130141021C
:100960008280970100209381E1E913810100130542
:100970000008731005308D4617F5FFFF13058568D5
:10098000558D7310553017F5FF1F1305A567938517
:10099000418701466356B50010C11105E34EB5FE0F
:1009A000170500001305855697F5FF1F938585658C
:1009B00017F6FF1F130606656388C500144194C12E
:1009C00011059105E39AC5FEB7F700E0154798C3F6
:1009D0009307606573901734730020305D712AC0EF
:1009E0003ECAB7170140884751892EC232C436C665
:1009F0003AC826CE12D837320140130282C58C473E
:100A0000D1896309052288475189631BB50288474C
:100A100051896317B502884751896313B502884726
:100A20005189631FB50088475189631BB50088470A
:100A300051896317B500884751896313B50009A030
:100A400022CC014616D01AD22320020088475189B1
:100A5000630105182D8DA98D09A009C909A080473A
:100A600051882D8C11E009A0C5B701001ED406DA0B
:100A7000A144194401000100C166FD16296705075C
:100A80009303F103930200080100010023200200F8
:100A900088475189630F05122D8DA98D01001335EB
:100AA00015000606498E7D15498C1D887D14FD14A0
:100AB000E1F4930400061375C60009C55147F946D1
:100AC000130000002380C30093831300232002003F
:100AD000884751892D8D0DC5A98D09A01944BDC91F
:100AE0001395F6017D858582798DA98E0582FD1489
:100AF00013F5740061D9010001000100E1F8D1A8EB
:100B00007D1413F516007D15798D8582A98E0582D9
:100B10001366060811C8FD1413F5740045D50100CD
:100B200001000100C5F475A0FD1413F5740009E57A
:100B30002380C30093831300232002008847518938
:100B400011C92D8DA98D51C5194401000D457D1583
:100B50007DFDADFC13F574002DED9305F1038821A7
:100B600085059700000093800007930755FB4252CC
:100B700017F7FF1F1307874AC9C785EA9221137524
:100B8000F6071D823D8A09446375860401C540232A
:100B90006311A404938747FCC1CFC5176394070072
:100BA0006FF09F968917B5CB2DA02D640504818E1B
:100BB0008DE2B386B3408506938787F80146639438
:100BC00007006FF0DF80C5170546639407006FF0DC
:100BD0001F806244F24482521253A253D250F24414
:100BE00042522246B2464247924509A0B707014009
:100BF00093874741414588C30245D24761617300ED
:100C00002030104316063A967106484285452D8DD0
:100C100048C20842050508C26DBF10C385450CC710
:100C200016063A960CD281454CCE0CDE4CD255B706
:100C300010A345B737F500E0210517F7FF1F13078D
:100C4000E73D0C4B104110CB0D8E50CBB165938519
:100C500005B80D8E8567938707FAE352F6F8FD779E
:100C600093870706E34DF6F60C4FB2950CCFA5D946
:100C7000371702400843135635007D8A930770F0FA
:100C80007D8DB305B04013D6954041060E06518DBB
:100C900008C3B1B7AA86170500001305E5138945F7
:100CA0002E86411122C026C2B71701409843B7F4DF
:100CB000F0FF9384F40F658FB7040200938404203F
:100CC000458FB7041000910484CB98C337031400F8
:100CD000510312C49E0613E40604814209E6A96288
:100CE000850241667D168E05AE83373201401302C0
:100CF00082C51947BD4509A0A2860580858A7D1752
:100D000081E6B3C46400194784CBFD1591C58D46B7
:100D1000FD16FDFE0100CDB79E85ADC5FD156394A2
:100D2000020041667D16010000210505A286858A24
:100D300081CE058093761600FD16B3F65600058227
:100D4000358E7D1735CF29A805809316F601FD86CF
:100D5000B3C4640084CB19470582B3F65600358EC0
:100D600081C993F67500FD15E1D209A0C1B7010054
:100D7000638A020093D282009D45E38902FA1344FC
:100D8000F6FF6DB78D46FD16FDFEB704140084CB4B
:100D9000A146FD16FDFEB7040400C10484CB8443C4
:100DA000B706FDFF9386F6CFF58CB7060400938651
:100DB0000640D58C84C30244924422424101828081
:100DC0009146FD16FDFEB3C4640019470100010001
:100DD00084CB79B7000000000A036C0061006D004D
:100DE0004E000000140355005300420052006500FD
:100DF0006C006100790031000000000020037700E2
:100E0000770077002E0064006300740074006500B2
:100E1000630068002E0063006F006D00000000009A
:100E20000403090444454144204D5354415455534F
:100E30003A25303878204D5456414C3A2530387890
:100E4000204D43415553453A25303878204D455083
:100E5000433A253038780A00090222000101008057
:100E600064090400000103000000092101010001E0
:100E7000221600070581030800140000000100008D
:100E8000DC0E00001200000000020000580E0000FE
:100E90002200000000220000F00E000016000000FA
:100EA000002100006A0E000009000000000300009D
:100EB000200E00000400000001030904FC0D0000E6
:100EC0002000000002030904E40D000014000000EB
:100ED00003030904D80D00000A00000012011001EC
:100EE00000000008C016DF0501000102000100003B
:100EF0000600FF0901A101150026FF0075089508ED
:080F00000900B20201C000006B
:00000001FF
