:100000006F00B01C000000007206000080060000B7
:1000100000000000000000000000000000000000E0
:1000200000000000000000000000000000000000D0
:1000300080060000000000008006000000000000B4
:100040008006000080060000800600008006000098
:100050003C0A0000800600008006000080060000C8
:100060008006000080060000800600008006000078
:100070008006000080060000800600008006000068
:100080008006000080060000800600008006000058
:1000900080060000800600008006000000000000CE
:1000A000634E050263C305042E86AA857D5515C2DD
:1000B00085466378B6006356C00006068606E36C84
:1000C000B6FE014563E4C500918D558D858205829C
:1000D000F5FA82808682C93F2E8582823305A04050
:1000E0006347B000B305B040C1B7B305B0408682E6
:1000F000653F3305A0408282868263C7050063495D
:1001000005005D372E858282B305B040E35B05FEB6
:100110003305A040513F3305B04082820000B7074D
:1001200000E083A7470F8280370700E08327470F4F
:10013000211106CA22C826C693F7070C9306000CA5
:10014000638AD70A02C42E84F1E18327470F89C747
:1001500093F7070891E3E137D24022854244B24445
:1001600061018280B30794401D476353F7009D47A8
:10017000370708000507370600E08326460F93057A
:10018000460F13F306086311030691C62AC23EC048
:1001900079371245824734000D47B685634EF70420
:1001A000A246370700E00D46232CD70EB306950074
:1001B000014783C2060005073383E500230053008F
:1001C0006385E7008506E316C7FE138747001367BC
:1001D00007F82304E100A246370700E0BE94232A73
:1001E000D70EE3C184F88DBF7D1741FB9C4193E797
:1001F000070C9CC101448DB73386E4002A96034660
:10020000060005078506A38FC6FE49BF8144D1BFFE
:100210007D151377F50F85479386818063FEE70090
:10022000B7170140114623A8C7801307000423A86D
:10023000E74023900600828037070020130707005D
:100240002A9703470700B715014093850580135689
:1002500047002A063D8B3397E7002E9618CA03D72E
:100260000600B397A70093C7F7FFF98F2390F60016
:100270008280011106CE22CC26CA02C02A8363578F
:10028000050089E685473303A0403EC013041006ED
:1002900019C213041004BA8459141A853AC81AC230
:1002A0002EC61AC4053DA5472243B2454247937660
:1002B000F50F63E1A7069386060393F6F60F93877F
:1002C00014002380D4001A853AC83EC62EC4E93BE8
:1002D0009246A245B24742472A8363FBB602824652
:1002E00099C69306D0022380D700938724003385D4
:1002F000E7409356F501AA962380070085860146BC
:10030000FD17634BD600F2406244D24405618280FF
:10031000BE8461B7A29655B7B305C70083C2070074
:1003200003C3050005062380550023806700C9BF6D
:100330000143ADC263D4B600B68505438D8EBA873E
:10034000B303D700B382F3406348500463D306007D
:100350008146BA9681473386F5406343C00463D330
:1003600005008145B6953385E54063040302637259
:10037000B7029307A002A38FF5FE9386F5FF637A79
:10038000D700238FF5FE9386E5FF6374D700A38E15
:10039000F5FE8280AE865DB78507A38FC7FE5DB789
:1003A0003306F500834206003386F60085072300F6
:1003B000560055B7511122C206C42E84B533A2404F
:1003C00022851244310182807D159377F50F054710
:1003D000938681806370F702B717014037060400E7
:1003E00023A8C7803707400023A8E740FD57239084
:1003F000F6008280B707002093870700AA9783C77B
:100400000700B71501409385058013D64700BD8BC3
:10041000C107B317F7003317A70003D506002A0654
:100420002E96498F1CCA2390E60082800323070082
:1004300093175300BA97C8536310C50613351500B8
:10044000C8D3631803001C47B9EFF5168D4763F551
:10045000D7045C4795CB631703029441B71734AABE
:100460009387D72F6390F602DC41B7D6DD009386E1
:10047000B6CBA207A1836397D7009D475CCF89477E
:100480005CC719A8232607009841238E0180938713
:10049000C18098C3D841D8C39306200D0946814531
:1004A00001456F00100683D6450083D7250003D58C
:1004B0006500C206DD8E83D70500232E0700232C9E
:1004C000070223240702232607022324070085832B
:1004D000130600496398C7009307D03FE39EF6FADE
:1004E000854779BF1306000D6396C70283D68180C6
:1004F0009387418113D68600A383D7002383C70047
:100500001CDFA146AA8763F3A600A147C207C183E7
:100510005CD759B713060034639DC702856793877C
:1005200007EE938507062A8390436310D602D043D3
:1005300010DF03C687009312060193D20201637392
:1005400055001A864206418250D7B107E39EB7FC98
:10055000A1B713060028E391C7F454C335BF311186
:1005600022C626C406C8931756003A8410C33E9785
:100570001853B2849306300C19C39306B004504448
:100580000947631FE60236853EC236C0A5273706F7
:100590006745372702401306361210D73796EFCD3E
:1005A0001306B69A10D7116650C792471306000873
:1005B000824610CB37F700E0370600802328C7D0EB
:1005C000A2979057D18C95C483D78180138641819F
:1005D00013978700C207C183A183D98F2313F60025
:1005E000A1450146138541813244C240A2445101D4
:1005F00009AF484C1C5C4C540E05898D3E95A147B3
:1006000063CAB7006349B0003244C240A244368591
:100610005101CDA5A1450146C1BFB72702400547FD
:1006200098C3B71702403707080123A20700130732
:10063000170898C337079F0098C7371702401C4315
:1006400093966700E3DD06FE5C43B7160240F19B1C
:1006500093E727005CC32147DC42B18BE39EE7FEB2
:10066000B70700E023AC070E1307000823AAE70E24
:100670008280371702401C47B7068000D58F1CC701
:10068000370700E08327470F93F70708E5FFF325B7
:10069000003073263034F326203473271034056578
:1006A000130585E8012601A0411106C622C426C211
:1006B000AD37B7F700E09847B167938707B83E9723
:1006C000B7F600E09C46998FE3CE07FEB7070020FF
:1006D00023AC0702B71602409C4E37F6F0FF130614
:1006E000F60F93E717019CCEB71701409843138488
:1006F000C180718F3716080013060680518F98C38A
:10070000130600203707014010C741462320C74089
:100710002326C7403706100037E700E02320C71024
:10072000984E138607401367570398CE03A7078098
:10073000FD769386F60F758F1367071023A0E78069
:10074000114723A8E78003A70740B70600F1FD166D
:10075000758FB7060001558F23A0E740930700046B
:100760001CCA37474141938741811307171498C327
:10077000130710042392E70003C7C1819387C18147
:100780003EC001E3024785478D442300F7008347BD
:1007900004001307F00F639AE700034514002D319E
:1007A000FD1493F4F40FE5F4C1BF1307D00F639663
:1007B000E70003451400A93CE5B71307E00F639475
:1007C000E7000D45E9BF1307C00F6394E7000D452F
:1007D000DDB71307A00FE395E7FC02478547230029
:1007E000F7007DBFAA8703C7070001E73385A7404D
:1007F00082808507CDBF130141FAA6C886CCA2CA64
:100800002AC02EC2B284B68702C803C7040013846C
:100810001400A30FE10001EBE64056444245C644F4
:100820001301C105828093065002630FD7003EC4B6
:100830001246824785451305F1018297A284C2477B
:10084000AA973EC8A247D1B783C614001306000377
:1008500013872400A30FD100130400036390C6087C
:10086000BA8401460147254511A89316270085043F
:10087000369783C6F4FF06072E970546938506FD37
:1008800013F3F50FE37365FE19C2A30FD1003AC647
:1008900061466353E60032C69305C006014663987D
:1008A000B60083C6040005468504A30FD100834625
:1008B000F101930540066383B60663E4D50213078E
:1008C00080056380E60A13073006638DE60AA9D621
:1008D00012463EC485451305F101BDA01304000274
:1008E00041B793055007638BB60213068007638AEE
:1008F000C60613063007E39DC6FC3ACC13874700B3
:100900009C433AC43E853ECAF13D6247D247AA8520
:1009100059C7B246381822863E851DA01387470066
:100920003AC415C69386B6F8181093B616008843D5
:100930000146A9453D3AB24638182286AA850810D4
:10094000C53A1246AA85281882478297CDBD13075B
:1009500050076395E60018108546D1BF18108146F0
:10096000F9B7884313874700138686FA3AC4854649
:10097000181013361600C145ED38B246AA8538184E
:10098000228675BF138747009C433AC4B246A30F23
:10099000F1003818228685451305F10155B7124636
:1009A0003E855DB71301C1FD32CA2A862EC836CCFA
:1009B000814514081305403B06C63ACE3ED036C0EA
:1009C0001D3DB240130141028280970100209381B6
:1009D00061E31381010013050008731005308D4693
:1009E00017F5FFFF13050562558D731055301385FC
:1009F00081809385C18701466356B50010C11105FA
:100A0000E34EB5FE170500001305855697F5FF1F49
:100A10009385455F138681806388C500144194C126
:100A200011059105E39AC5FEB7F700E0154798C395
:100A30009307806A73901734730020305D712AC069
:100A40003ECAB7170140884751892EC232C436C604
:100A50003AC826CE12D837320140130282C58C47DD
:100A6000D1896309052288475189631BB5028847EC
:100A700051896317B502884751896313B5028847C6
:100A80005189631FB50088475189631BB5008847AA
:100A900051896317B500884751896313B50009A0D0
:100AA00022CC014616D01AD2232002008847518951
:100AB000630105182D8DA98D09A009C909A08047DA
:100AC00051882D8C11E009A0C5B701001ED406DAAB
:100AD000A144194401000100C166FD1629670507FC
:100AE0009303F10393020008010001002320020098
:100AF00088475189630F05122D8DA98D010013358B
:100B000015000606498E7D15498C1D887D14FD143F
:100B1000E1F4930400061375C60009C55147F94670
:100B2000130000002380C3009383130023200200DE
:100B3000884751892D8D0DC5A98D09A01944BDC9BE
:100B40001395F6017D858582798DA98E0582FD1428
:100B500013F5740061D9010001000100E1F8D1A88A
:100B60007D1413F516007D15798D8582A98E058279
:100B70001366060811C8FD1413F5740045D501006D
:100B800001000100C5F475A0FD1413F5740009E51A
:100B90002380C300938313002320020088475189D8
:100BA00011C92D8DA98D51C5194401000D457D1523
:100BB0007DFDADFC13F574002DED9305F103882147
:100BC00085059700000093800007930755FB42526C
:100BD00017F7FF1F13070745C9C785EA9221137549
:100BE000F6071D823D8A09446375860401C54023CA
:100BF0006311A404938747FCC1CFC5176394070012
:100C00006FF0FF958917B5CB2DA02D640504818E5B
:100C10008DE2B386B3408506938787F801466394D7
:100C200007006FF0BF80C5170546639407006FF09B
:100C3000EFFF6244F24482521253A253D250F24464
:100C400042522246B2464247924509A0B7070140A8
:100C500093874741414588C30245D247616173008C
:100C60002030104316063A967106484285452D8D70
:100C700048C20842050508C26DBF10C385450CC7B0
:100C800016063A960CD281454CCE0CDE4CD255B7A6
:100C900010A345B737F500E0210517F7FF1F13072D
:100CA00067380C4B104110CB0D8E50CBB16593853E
:100CB00005B80D8E8567938707FAE352F6F8FD773E
:100CC00093870706E34DF6F60C4FB2950CCFA5D9E6
:100CD000371702400843135635007D8A930770F09A
:100CE0007D8DB305B04013D6954041060E06518D5B
:100CF00008C3B1B7AA86170500001305E513894597
:100D00002E86411122C026C2B71701409843B7F47E
:100D1000F0FF9384F40F658FB704020093840420DE
:100D2000458FB7041000910484CB98C33703140097
:100D3000510312C49E0613E40604814209E6A96227
:100D4000850241667D168E05AE833732014013025F
:100D500082C51947BD4509A0A2860580858A7D17F1
:100D600081E6B3C46400194784CBFD1591C58D4657
:100D7000FD16FDFE0100CDB79E85ADC5FD15639442
:100D8000020041667D16010000210505A286858AC4
:100D900081CE058093761600FD16B3F656000582C7
:100DA000358E7D1735CF29A805809316F601FD866F
:100DB000B3C4640084CB19470582B3F65600358E60
:100DC00081C993F67500FD15E1D209A0C1B70100F4
:100DD000638A020093D282009D45E38902FA13449C
:100DE000F6FF6DB78D46FD16FDFEB704140084CBEB
:100DF000A146FD16FDFEB7040400C10484CB844364
:100E0000B706FDFF9386F6CFF58CB70604009386F0
:100E10000640D58C84C30244924422424101828020
:100E20009146FD16FDFEB3C46400194701000100A0
:100E300084CB79B7000000000C0341004100410061
:100E4000410041000000000014035500530042001F
:100E5000520065006C006100790032000000000063
:100E600020037700770077002E0064006300740091
:100E700074006500630068002E0063006F006D0061
:100E8000000000000403090444454144204D53542C
:100E9000415455533A25303878204D5456414C3AF8
:100EA00025303878204D43415553453A2530387820
:100EB000204D4550433A253038780A000902220077
:100EC0000101008064090400000103000000092101
:100ED000010100012216000705810308001400002B
:100EE00000010000400F000012000000000200009E
:100EF000BC0E00002200000000220000540F000081
:100F00001600000000210000CE0E000009000000C5
:100F100000030000840E0000040000000103090427
:100F2000600E00002000000002030904480E0000CB
:100F30001400000003030904380E00000C00000038
:100F40001201100100000008C016DF0501000102B7
:100F5000000100000600FF0901A101150026FF00A5
:0C0F6000750895080900B20201C00000ED
:080F6C00023600000000000045
:00000001FF
